{
  "contractName": "PhotoNFTMarketplace",
  "abi": [
    {
      "inputs": [
        {
          "internalType": "contract PhotoNFTData",
          "name": "_photoNFTData",
          "type": "address"
        }
      ],
      "payable": false,
      "stateMutability": "nonpayable",
      "type": "constructor"
    },
    {
      "anonymous": false,
      "inputs": [
        {
          "indexed": false,
          "internalType": "contract PhotoNFT",
          "name": "photoNFT",
          "type": "address"
        },
        {
          "indexed": false,
          "internalType": "uint256",
          "name": "photoId",
          "type": "uint256"
        },
        {
          "indexed": false,
          "internalType": "address",
          "name": "ownerBeforeOwnershipTransferred",
          "type": "address"
        },
        {
          "indexed": false,
          "internalType": "address",
          "name": "ownerAfterOwnershipTransferred",
          "type": "address"
        }
      ],
      "name": "PhotoNFTOwnershipChanged",
      "type": "event"
    },
    {
      "anonymous": false,
      "inputs": [
        {
          "indexed": false,
          "internalType": "uint256",
          "name": "ad",
          "type": "uint256"
        },
        {
          "indexed": false,
          "internalType": "bytes32",
          "name": "status",
          "type": "bytes32"
        }
      ],
      "name": "TradeStatusChange",
      "type": "event"
    },
    {
      "constant": true,
      "inputs": [],
      "name": "PHOTO_NFT_MARKETPLACE",
      "outputs": [
        {
          "internalType": "address",
          "name": "",
          "type": "address"
        }
      ],
      "payable": false,
      "stateMutability": "view",
      "type": "function"
    },
    {
      "constant": false,
      "inputs": [
        {
          "internalType": "contract PhotoNFT",
          "name": "photoNFT",
          "type": "address"
        },
        {
          "internalType": "uint256",
          "name": "_photoId",
          "type": "uint256"
        }
      ],
      "name": "cancelTrade",
      "outputs": [],
      "payable": false,
      "stateMutability": "nonpayable",
      "type": "function"
    },
    {
      "constant": true,
      "inputs": [
        {
          "internalType": "uint256",
          "name": "_photoId",
          "type": "uint256"
        }
      ],
      "name": "getTrade",
      "outputs": [
        {
          "components": [
            {
              "internalType": "address",
              "name": "seller",
              "type": "address"
            },
            {
              "internalType": "uint256",
              "name": "photoId",
              "type": "uint256"
            },
            {
              "internalType": "uint256",
              "name": "photoPrice",
              "type": "uint256"
            },
            {
              "internalType": "bytes32",
              "name": "status",
              "type": "bytes32"
            }
          ],
          "internalType": "struct PhotoNFTTradable.Trade",
          "name": "trade_",
          "type": "tuple"
        }
      ],
      "payable": false,
      "stateMutability": "view",
      "type": "function"
    },
    {
      "constant": false,
      "inputs": [
        {
          "internalType": "contract PhotoNFT",
          "name": "photoNFT",
          "type": "address"
        },
        {
          "internalType": "uint256",
          "name": "_photoId",
          "type": "uint256"
        }
      ],
      "name": "openTrade",
      "outputs": [],
      "payable": false,
      "stateMutability": "nonpayable",
      "type": "function"
    },
    {
      "constant": false,
      "inputs": [
        {
          "internalType": "contract PhotoNFT",
          "name": "photoNFT",
          "type": "address"
        },
        {
          "internalType": "uint256",
          "name": "_photoId",
          "type": "uint256"
        },
        {
          "internalType": "uint256",
          "name": "_photoPrice",
          "type": "uint256"
        }
      ],
      "name": "openTradeWhenCreateNewPhotoNFT",
      "outputs": [],
      "payable": false,
      "stateMutability": "nonpayable",
      "type": "function"
    },
    {
      "constant": true,
      "inputs": [],
      "name": "photoNFT",
      "outputs": [
        {
          "internalType": "contract PhotoNFT",
          "name": "",
          "type": "address"
        }
      ],
      "payable": false,
      "stateMutability": "view",
      "type": "function"
    },
    {
      "constant": true,
      "inputs": [],
      "name": "photoNFTData",
      "outputs": [
        {
          "internalType": "contract PhotoNFTData",
          "name": "",
          "type": "address"
        }
      ],
      "payable": false,
      "stateMutability": "view",
      "type": "function"
    },
    {
      "constant": true,
      "inputs": [
        {
          "internalType": "uint256",
          "name": "",
          "type": "uint256"
        }
      ],
      "name": "trades",
      "outputs": [
        {
          "internalType": "address",
          "name": "seller",
          "type": "address"
        },
        {
          "internalType": "uint256",
          "name": "photoId",
          "type": "uint256"
        },
        {
          "internalType": "uint256",
          "name": "photoPrice",
          "type": "uint256"
        },
        {
          "internalType": "bytes32",
          "name": "status",
          "type": "bytes32"
        }
      ],
      "payable": false,
      "stateMutability": "view",
      "type": "function"
    },
    {
      "constant": false,
      "inputs": [
        {
          "internalType": "contract PhotoNFT",
          "name": "_photoNFT",
          "type": "address"
        },
        {
          "internalType": "uint256",
          "name": "_photoId",
          "type": "uint256"
        },
        {
          "internalType": "address",
          "name": "_buyer",
          "type": "address"
        }
      ],
      "name": "transferOwnershipOfPhotoNFT",
      "outputs": [],
      "payable": false,
      "stateMutability": "nonpayable",
      "type": "function"
    },
    {
      "constant": false,
      "inputs": [
        {
          "internalType": "contract PhotoNFT",
          "name": "_photoNFT",
          "type": "address"
        }
      ],
      "name": "buyPhotoNFT",
      "outputs": [
        {
          "internalType": "bool",
          "name": "",
          "type": "bool"
        }
      ],
      "payable": true,
      "stateMutability": "payable",
      "type": "function"
    },
    {
      "constant": true,
      "inputs": [],
      "name": "isOwner",
      "outputs": [
        {
          "internalType": "bool",
          "name": "",
          "type": "bool"
        }
      ],
      "payable": false,
      "stateMutability": "view",
      "type": "function"
    },
    {
      "constant": false,
      "inputs": [
        {
          "internalType": "address",
          "name": "from",
          "type": "address"
        },
        {
          "internalType": "address",
          "name": "to",
          "type": "address"
        },
        {
          "internalType": "uint256",
          "name": "photoId",
          "type": "uint256"
        }
      ],
      "name": "reputation",
      "outputs": [
        {
          "internalType": "uint256",
          "name": "",
          "type": "uint256"
        },
        {
          "internalType": "uint256",
          "name": "",
          "type": "uint256"
        }
      ],
      "payable": false,
      "stateMutability": "nonpayable",
      "type": "function"
    },
    {
      "constant": true,
      "inputs": [
        {
          "internalType": "uint256",
          "name": "photoId",
          "type": "uint256"
        }
      ],
      "name": "getReputationCount",
      "outputs": [
        {
          "internalType": "uint256",
          "name": "",
          "type": "uint256"
        }
      ],
      "payable": false,
      "stateMutability": "view",
      "type": "function"
    },
    {
      "constant": false,
      "inputs": [
        {
          "internalType": "address payable",
          "name": "recipient",
          "type": "address"
        }
      ],
      "name": "withdraw",
      "outputs": [],
      "payable": false,
      "stateMutability": "nonpayable",
      "type": "function"
    }
  ],
  "bytecode": "0x60806040523480156200001157600080fd5b50604051620017123803806200171283398101604081905262000034916200007c565b600180546001600160a01b039092166001600160a01b03199283168117909155600060035560068054909216179055620000e5565b80516200007681620000cb565b92915050565b6000602082840312156200008f57600080fd5b60006200009d848462000069565b949350505050565b60006200007682620000bf565b60006200007682620000a5565b6001600160a01b031690565b620000d681620000b2565b8114620000e257600080fd5b50565b61161d80620000f56000396000f3fe6080604052600436106100dd5760003560e01c8063759c4bf31161007f5780638f32d59b116100595780638f32d59b14610259578063a2793daf1461026e578063e61b28db1461029c578063ec039514146102be576100dd565b8063759c4bf3146101ec5780637cc0c9bd1461020c57806380a279c414610239576100dd565b8063493c2176116100bb578063493c21761461016857806349b1d3e71461018a5780634fe71d13146101aa57806351cff8d9146101cc576100dd565b806316f946ef146100e25780631e6c598e1461010b5780632db25e051461013b575b600080fd5b6100f56100f0366004610fd9565b6102d3565b6040516101029190611387565b60405180910390f35b34801561011757600080fd5b5061012b6101263660046110db565b610696565b6040516101029493929190611349565b34801561014757600080fd5b5061015b6101563660046110db565b6106c9565b6040516101029190611471565b34801561017457600080fd5b50610188610183366004611031565b610725565b005b34801561019657600080fd5b506101886101a5366004611074565b61081b565b3480156101b657600080fd5b506101bf61092b565b60405161010291906112e3565b3480156101d857600080fd5b506101886101e7366004610f50565b61093a565b3480156101f857600080fd5b50610188610207366004610ff7565b61098e565b34801561021857600080fd5b5061022c6102273660046110db565b610b1b565b604051610102919061147f565b34801561024557600080fd5b50610188610254366004610ff7565b610b21565b34801561026557600080fd5b506100f5610c7b565b34801561027a57600080fd5b5061028e610289366004610f6e565b610c8c565b6040516101029291906114c1565b3480156102a857600080fd5b506102b1610c97565b6040516101029190611395565b3480156102ca57600080fd5b506102b1610ca6565b6000816102de610ce4565b600654604051637fd6c40560e01b81526001600160a01b0390911690637fd6c4059061030e908590600401611395565b60006040518083038186803b15801561032657600080fd5b505afa15801561033a573d6000803e3d6000fd5b505050506040513d6000823e601f3d908101601f1916820160405261036291908101906110a6565b6060810151608082015191925090819034811461039a5760405162461bcd60e51b815260040161039190611461565b60405180910390fd5b6040516001600160a01b0383169082156108fc029083906000818181858888f193505050501580156103d0573d6000803e3d6000fd5b5060405163095ea7b360e01b815233906001906001600160a01b0388169063095ea7b3906104049085908590600401611327565b600060405180830381600087803b15801561041e57600080fd5b505af1158015610432573d6000803e3d6000fd5b50506040516331a9108f60e11b8152600092506001600160a01b038a169150636352211e9061046590859060040161147f565b60206040518083038186803b15801561047d57600080fd5b505afa158015610491573d6000803e3d6000fd5b505050506040513d601f19601f820116820180604052506104b59190810190610f2a565b90506104c2888385610725565b600654604051637cb1479b60e01b81526001600160a01b0390911690637cb1479b906104f4908b9087906004016113a3565b602060405180830381600087803b15801561050e57600080fd5b505af1158015610522573d6000803e3d6000fd5b505050506040513d601f19601f820116820180604052506105469190810190610fbb565b50600654604051634dd5bfa560e11b81526001600160a01b0390911690639bab7f4a90610577908b906004016113be565b602060405180830381600087803b15801561059157600080fd5b505af11580156105a5573d6000803e3d6000fd5b505050506040513d601f19601f820116820180604052506105c99190810190610fbb565b506040516331a9108f60e11b81526000906001600160a01b038a1690636352211e906105f990869060040161147f565b60206040518083038186803b15801561061157600080fd5b505afa158015610625573d6000803e3d6000fd5b505050506040513d601f19601f820116820180604052506106499190810190610f2a565b90507fa8ffd0052cf94298cdb4d728ccaebde44f94e7568e31b2129a24a8b2e10fea8c8984848460405161068094939291906113fc565b60405180910390a1505050505050505050919050565b600260208190526000918252604090912080546001820154928201546003909201546001600160a01b0390911692919084565b6106d1610d3b565b6106d9610d3b565b5050600090815260026020818152604092839020835160808101855281546001600160a01b03168152600182015492810192909252918201549281019290925260030154606082015290565b8261072e610d3b565b610737846106c9565b905080606001516327b832b760e11b146107635760405162461bcd60e51b815260040161039190611451565b61076e858585610cb5565b60208101516040516323b872dd60e01b81526001600160a01b038416916323b872dd916107a2913091889190600401611319565b600060405180830381600087803b1580156107bc57600080fd5b505af11580156107d0573d6000803e3d6000fd5b505050506810d85b98d95b1b195960ba1b6107ea856106c9565b606001526040516000805160206115bb8339815191529061080c90869061148d565b60405180910390a15050505050565b6040516323b872dd60e01b81526001600160a01b038416906323b872dd9061084b903390309087906004016112f1565b600060405180830381600087803b15801561086557600080fd5b505af1158015610879573d6000803e3d6000fd5b50506003805460019081018083556040805160808101825233815260208082018a81528284018a81526327b832b760e11b60608501908152600096875260029384905295859020935184546001600160a01b0319166001600160a01b03909116178455905195830195909555935193810193909355905191830191909155905490516000805160206115bb833981519152935061091e925060001991909101906114a7565b60405180910390a1505050565b6005546001600160a01b031681565b6004546001600160a01b0316331461095157600080fd5b60405147906001600160a01b0383169082156108fc029083906000818181858888f19350505050158015610989573d6000803e3d6000fd5b505050565b600154604051634dd5bfa560e11b81526001600160a01b0390911690639bab7f4a906109be9085906004016113be565b602060405180830381600087803b1580156109d857600080fd5b505af11580156109ec573d6000803e3d6000fd5b505050506040513d601f19601f82011682018060405250610a109190810190610fbb565b50600081815260026020526040902080546001600160a01b03163314610a485760405162461bcd60e51b815260040161039190611431565b80600301546327b832b760e11b14610a725760405162461bcd60e51b815260040161039190611451565b805460018201546040516323b872dd60e01b81526001600160a01b03868116936323b872dd93610aaa93309390921691600401611319565b600060405180830381600087803b158015610ac457600080fd5b505af1158015610ad8573d6000803e3d6000fd5b505050600083815260026020526040908190206810d85b98d95b1b195960ba1b600390910155516000805160206115bb833981519152915061091e90849061148d565b50600090565b600154604051634dd5bfa560e11b81526001600160a01b0390911690639bab7f4a90610b519085906004016113dd565b602060405180830381600087803b158015610b6b57600080fd5b505af1158015610b7f573d6000803e3d6000fd5b505050506040513d601f19601f82011682018060405250610ba39190810190610fbb565b50600081815260026020526040902080546001600160a01b03163314610bdb5760405162461bcd60e51b815260040161039190611441565b60018101546040516323b872dd60e01b81526001600160a01b038516916323b872dd91610c0f9133913091906004016112f1565b600060405180830381600087803b158015610c2957600080fd5b505af1158015610c3d573d6000803e3d6000fd5b505050600083815260026020526040908190206327b832b760e11b600390910155516000805160206115bb833981519152915061091e9084906114a7565b6004546001600160a01b0316331490565b600080935093915050565b6000546001600160a01b031681565b6006546001600160a01b031681565b60009182526002602052604090912080546001600160a01b0319166001600160a01b0390921691909117905550565b60405180610100016040528060006001600160a01b03168152602001606081526020016060815260200160006001600160a01b03168152602001600081526020016060815260200160608152602001600081525090565b60408051608081018252600080825260208201819052918101829052606081019190915290565b8035610d6d81611588565b92915050565b8051610d6d81611588565b8051610d6d8161159f565b8035610d6d816115a8565b8051610d6d816115a8565b600082601f830112610db057600080fd5b8151610dc3610dbe826114f6565b6114cf565b91508082526020830160208301858383011115610ddf57600080fd5b610dea83828461155c565b50505092915050565b60006101008284031215610e0657600080fd5b610e116101006114cf565b90506000610e1f8484610d94565b825250602082015167ffffffffffffffff811115610e3c57600080fd5b610e4884828501610d9f565b602083015250604082015167ffffffffffffffff811115610e6857600080fd5b610e7484828501610d9f565b6040830152506060610e8884828501610d73565b6060830152506080610e9c84828501610f1f565b60808301525060a082015167ffffffffffffffff811115610ebc57600080fd5b610ec884828501610d9f565b60a08301525060c082015167ffffffffffffffff811115610ee857600080fd5b610ef484828501610d9f565b60c08301525060e0610f0884828501610f1f565b60e08301525092915050565b8035610d6d816115b1565b8051610d6d816115b1565b600060208284031215610f3c57600080fd5b6000610f488484610d73565b949350505050565b600060208284031215610f6257600080fd5b6000610f488484610d62565b600080600060608486031215610f8357600080fd5b6000610f8f8686610d62565b9350506020610fa086828701610d62565b9250506040610fb186828701610f14565b9150509250925092565b600060208284031215610fcd57600080fd5b6000610f488484610d7e565b600060208284031215610feb57600080fd5b6000610f488484610d89565b6000806040838503121561100a57600080fd5b60006110168585610d89565b925050602061102785828601610f14565b9150509250929050565b60008060006060848603121561104657600080fd5b60006110528686610d89565b935050602061106386828701610f14565b9250506040610fb186828701610d62565b60008060006060848603121561108957600080fd5b60006110958686610d89565b9350506020610fa086828701610f14565b6000602082840312156110b857600080fd5b815167ffffffffffffffff8111156110cf57600080fd5b610f4884828501610df3565b6000602082840312156110ed57600080fd5b6000610f488484610f14565b61110281611551565b82525050565b61110281611527565b61110281611532565b61110281611537565b6111028161153a565b600061113960268361151e565b7f54726164652063616e2062652063616e63656c6c6564206f6e6c79206279207381526532b63632b91760d11b602082015260400192915050565b600061118160218361151e565b7f54726164652063616e206265206f70656e206f6e6c792062792073656c6c65728152601760f91b602082015260400192915050565b60006111c460128361151e565b712a3930b2329034b9903737ba1027b832b71760711b815260200192915050565b6810d85b98d95b1b195960ba1b9052565b600061120360098361151e565b6810d85b98d95b1b195960ba1b815260200192915050565b6327b832b760e11b9052565b600061123460048361151e565b6327b832b760e11b815260200192915050565b6000611254602a8361151e565b7f6d73672e76616c75652073686f756c6420626520657175616c20746f2074686581526908189d5e505b5bdd5b9d60b21b602082015260400192915050565b805160808301906112a48482611108565b5060208201516112b7602085018261111a565b5060408201516112ca604085018261111a565b5060608201516112dd606085018261111a565b50505050565b60208101610d6d8284611108565b606081016112ff82866110f9565b61130c6020830185611108565b610f48604083018461111a565b606081016112ff8286611108565b604081016113358285611108565b611342602083018461111a565b9392505050565b608081016113578287611108565b611364602083018661111a565b611371604083018561111a565b61137e606083018461111a565b95945050505050565b60208101610d6d8284611111565b60208101610d6d8284611123565b604081016113b18285611123565b6113426020830184611108565b604081016113cc8284611123565b8181036020830152611342816111f6565b604081016113eb8284611123565b818103602083015261134281611227565b6080810161140a8287611123565b611417602083018661111a565b6114246040830185611108565b61137e6060830184611108565b60208082528101610d6d8161112c565b60208082528101610d6d81611174565b60208082528101610d6d816111b7565b60208082528101610d6d81611247565b60808101610d6d8284611293565b60208101610d6d828461111a565b6040810161149b828461111a565b610d6d602083016111e5565b604081016114b5828461111a565b610d6d6020830161121b565b60408101611335828561111a565b60405181810167ffffffffffffffff811182821017156114ee57600080fd5b604052919050565b600067ffffffffffffffff82111561150d57600080fd5b506020601f91909101601f19160190565b90815260200190565b6000610d6d82611545565b151590565b90565b6000610d6d82611527565b6001600160a01b031690565b6000610d6d8261153a565b60005b8381101561157757818101518382015260200161155f565b838111156112dd5750506000910152565b61159181611527565b811461159c57600080fd5b50565b61159181611532565b6115918161153a565b6115918161153756fe4d38ed2c5ea671a5ccddc331f0ebebd94a60aaf6e572543497485d4d148f9edfa365627a7a723158209d51a9fad320c6911c327be267ad85182dbcc8be0ecdf349be4291f69c729bbf6c6578706572696d656e74616cf564736f6c63430005100040",
  "source": "pragma solidity ^0.5.16;\npragma experimental ABIEncoderV2;\n\n//import { ERC20 } from './openzeppelin-solidity/contracts/token/ERC20/ERC20.sol';\nimport { SafeMath } from \"./openzeppelin-solidity/contracts/math/SafeMath.sol\";\nimport { PhotoNFT } from \"./PhotoNFT.sol\";\nimport { PhotoNFTTradable } from \"./PhotoNFTTradable.sol\";\nimport { PhotoNFTMarketplaceEvents } from \"./photo-nft-marketplace/commons/PhotoNFTMarketplaceEvents.sol\";\nimport { PhotoNFTData } from \"./PhotoNFTData.sol\";\nimport { Ownable } from \"./openzeppelin-solidity/contracts/ownership/Ownable.sol\";\n\ncontract PhotoNFTMarketplace is PhotoNFTTradable, PhotoNFTMarketplaceEvents {\n    using SafeMath for uint256;\n    address _owner; \n    address public PHOTO_NFT_MARKETPLACE;\n\n    PhotoNFTData public photoNFTData;\n\n    constructor(PhotoNFTData _photoNFTData) public PhotoNFTTradable(_photoNFTData) {\n        photoNFTData = _photoNFTData;\n        address payable PHOTO_NFT_MARKETPLACE = address(uint160(address(this)));\n    }\n\n    /** \n     * @notice - Buy function is that buy NFT token and ownership transfer. (Reference from IERC721.sol)\n     * @notice - msg.sender buy NFT with ETH (msg.value)\n     * @notice - PhotoID is always 1. Because each photoNFT is unique.\n     */\n    function buyPhotoNFT(PhotoNFT _photoNFT) public payable returns (bool) {\n        PhotoNFT photoNFT = _photoNFT;\n        PhotoNFTData.Photo memory photo = photoNFTData.getPhotoByNFTAddress(photoNFT);\n        address _seller = photo.ownerAddress;                     /// Owner\n        address payable seller = address(uint160(_seller));  /// Convert owner address with payable\n        uint buyAmount = photo.photoPrice;\n        require (msg.value == buyAmount, \"msg.value should be equal to the buyAmount\");\n \n        /// Bought-amount is transferred into a seller wallet\n        seller.transfer(buyAmount);\n\n        /// Approve a buyer address as a receiver before NFT's transferFrom method is executed\n        address buyer = msg.sender;\n        uint photoId = 1;  /// [Note]: PhotoID is always 1. Because each photoNFT is unique.\n        photoNFT.approve(buyer, photoId);\n\n        address ownerBeforeOwnershipTransferred = photoNFT.ownerOf(photoId);\n\n        /// Transfer Ownership of the PhotoNFT from a seller to a buyer\n        transferOwnershipOfPhotoNFT(photoNFT, photoId, buyer);    \n        photoNFTData.updateOwnerOfPhotoNFT(photoNFT, buyer);\n        photoNFTData.updateStatus(photoNFT, \"Cancelled\");\n        address ownerAfterOwnershipTransferred = photoNFT.ownerOf(photoId);\n        emit PhotoNFTOwnershipChanged(photoNFT, photoId, ownerBeforeOwnershipTransferred, ownerAfterOwnershipTransferred);\n    }\n\n    modifier onlyOwner() {\n        require(msg.sender == _owner);\n        _;\n     }\n\n    \n    function isOwner() public view returns (bool) {\n        return msg.sender == _owner;\n    }\n\n\n    ///-----------------------------------------------------\n    /// Methods below are pending methods\n    ///-----------------------------------------------------\n\n    /** \n     * @dev reputation function is that gives reputation to a user who has ownership of being posted photo.\n     * @dev Each user has reputation data in struct\n     */\n    function reputation(address from, address to, uint256 photoId) public returns (uint256, uint256) {\n\n        // Photo storage photo = photos[photoId];\n        // photo.reputation = photo.reputation.add(1);\n\n        // emit AddReputation(photoId, photo.reputation);\n\n        // return (photoId, photo.reputation);\n        return (0, 0);\n    }\n    \n\n    function getReputationCount(uint256 photoId) public view returns (uint256) {\n        uint256 curretReputationCount;\n\n        // Photo memory photo = photos[photoId];\n        // curretReputationCount = photo.reputation;\n\n        return curretReputationCount;\n    }    \n\n    function withdraw(address payable recipient) public onlyOwner {\n        uint256 balance = address(this).balance;\n        recipient.transfer(balance);\n    }\n\n\n}\n",
  "sourcePath": "/Users/renancorrea/Desktop/SheepNFT/contracts/PhotoNFTMarketPlace.sol",
  "compiler": {
    "name": "solc",
    "version": "0.5.16+commit.9c3226ce.Emscripten.clang"
  },
  "schemaVersion": "3.4.3",
  "updatedAt": "2021-10-04T04:21:11.090Z",
  "networkType": "ethereum",
  "devdoc": {
    "methods": {
      "openTradeWhenCreateNewPhotoNFT(address,uint256,uint256)": {
        "details": "Opens a new trade. Puts _photoId in escrow.",
        "params": {
          "_photoId": "The id for the photoId to trade.",
          "_photoPrice": "The amount of currency for which to trade the photoId."
        }
      },
      "reputation(address,address,uint256)": {
        "details": "reputation function is that gives reputation to a user who has ownership of being posted photo.Each user has reputation data in struct"
      }
    }
  },
  "userdoc": {
    "methods": {
      "buyPhotoNFT(address)": {
        "notice": "- Buy function is that buy NFT token and ownership transfer. (Reference from IERC721.sol)- msg.sender buy NFT with ETH (msg.value)- PhotoID is always 1. Because each photoNFT is unique."
      },
      "openTradeWhenCreateNewPhotoNFT(address,uint256,uint256)": {
        "notice": "- This method is only executed when a seller create a new PhotoNFT"
      }
    }
  }
}