{
  "contractName": "PhotoNFTFactory",
  "abi": [
    {
      "inputs": [
        {
          "internalType": "contract PhotoNFTMarketplace",
          "name": "_photoNFTMarketplace",
          "type": "address"
        },
        {
          "internalType": "contract PhotoNFTData",
          "name": "_photoNFTData",
          "type": "address"
        }
      ],
      "payable": false,
      "stateMutability": "nonpayable",
      "type": "constructor"
    },
    {
      "anonymous": false,
      "inputs": [
        {
          "indexed": false,
          "internalType": "uint256",
          "name": "tokenId",
          "type": "uint256"
        },
        {
          "indexed": false,
          "internalType": "uint256",
          "name": "reputationCount",
          "type": "uint256"
        }
      ],
      "name": "AddReputation",
      "type": "event"
    },
    {
      "anonymous": false,
      "inputs": [
        {
          "indexed": false,
          "internalType": "address",
          "name": "owner",
          "type": "address"
        },
        {
          "indexed": false,
          "internalType": "contract PhotoNFT",
          "name": "photoNFT",
          "type": "address"
        },
        {
          "indexed": false,
          "internalType": "string",
          "name": "nftName",
          "type": "string"
        },
        {
          "indexed": false,
          "internalType": "string",
          "name": "nftSymbol",
          "type": "string"
        },
        {
          "indexed": false,
          "internalType": "uint256",
          "name": "photoPrice",
          "type": "uint256"
        },
        {
          "indexed": false,
          "internalType": "string",
          "name": "ipfsHashOfPhoto",
          "type": "string"
        }
      ],
      "name": "PhotoNFTCreated",
      "type": "event"
    },
    {
      "constant": true,
      "inputs": [
        {
          "internalType": "uint256",
          "name": "",
          "type": "uint256"
        }
      ],
      "name": "photoAddresses",
      "outputs": [
        {
          "internalType": "address",
          "name": "",
          "type": "address"
        }
      ],
      "payable": false,
      "stateMutability": "view",
      "type": "function"
    },
    {
      "constant": true,
      "inputs": [],
      "name": "photoNFTData",
      "outputs": [
        {
          "internalType": "contract PhotoNFTData",
          "name": "",
          "type": "address"
        }
      ],
      "payable": false,
      "stateMutability": "view",
      "type": "function"
    },
    {
      "constant": true,
      "inputs": [],
      "name": "photoNFTMarketplace",
      "outputs": [
        {
          "internalType": "contract PhotoNFTMarketplace",
          "name": "",
          "type": "address"
        }
      ],
      "payable": false,
      "stateMutability": "view",
      "type": "function"
    },
    {
      "constant": false,
      "inputs": [
        {
          "internalType": "string",
          "name": "nftName",
          "type": "string"
        },
        {
          "internalType": "string",
          "name": "nftSymbol",
          "type": "string"
        },
        {
          "internalType": "uint256",
          "name": "photoPrice",
          "type": "uint256"
        },
        {
          "internalType": "string",
          "name": "ipfsHashOfPhoto",
          "type": "string"
        }
      ],
      "name": "createNewPhotoNFT",
      "outputs": [
        {
          "internalType": "bool",
          "name": "",
          "type": "bool"
        }
      ],
      "payable": false,
      "stateMutability": "nonpayable",
      "type": "function"
    },
    {
      "constant": true,
      "inputs": [],
      "name": "baseTokenURI",
      "outputs": [
        {
          "internalType": "string",
          "name": "",
          "type": "string"
        }
      ],
      "payable": false,
      "stateMutability": "pure",
      "type": "function"
    },
    {
      "constant": true,
      "inputs": [
        {
          "internalType": "string",
          "name": "_ipfsHashOfPhoto",
          "type": "string"
        }
      ],
      "name": "getTokenURI",
      "outputs": [
        {
          "internalType": "string",
          "name": "",
          "type": "string"
        }
      ],
      "payable": false,
      "stateMutability": "view",
      "type": "function"
    }
  ],
  "bytecode": "0x608060405234801561001057600080fd5b50604051620027863803806200278683398101604081905261003191610084565b600280546001600160a01b03199081166001600160a01b03948516179182905560038054821693851693909317909255600180549190931691161790556100f7565b805161007e816100e0565b92915050565b6000806040838503121561009757600080fd5b60006100a38585610073565b92505060206100b485828601610073565b9150509250929050565b600061007e826100d4565b600061007e826100be565b6001600160a01b031690565b6100e9816100c9565b81146100f457600080fd5b50565b61267f80620001076000396000f3fe60806040523480156200001157600080fd5b50600436106200006a5760003560e01c806371552f6c146200006f578063c4188f11146200009e578063d3e1f6e314620000b7578063d547cfb714620000dd578063dc0985c314620000e7578063ec039514146200010d575b600080fd5b620000866200008036600462000702565b62000117565b60405162000095919062000a7e565b60405180910390f35b620000a86200031c565b60405162000095919062000a8e565b620000ce620000c8366004620006c9565b6200032b565b60405162000095919062000ac1565b620000ce62000348565b620000fe620000f8366004620007b6565b62000377565b604051620000959190620008fa565b620000a86200039f565b600033606062000127846200032b565b9050600082888884896040516200013e906200061c565b6200014e95949392919062000984565b604051809103906000f0801580156200016b573d6000803e3d6000fd5b50600080546001810182558180527f290decd9548b62a8d60345a988386fc84ba6bc95484008f6362f93160ef3e5630180546001600160a01b0319166001600160a01b0384811691909117909155600354604051630633d55360e01b81529394501691630633d55391620001ee9185908d908d9033908e908e90600401620009ef565b602060405180830381600087803b1580156200020957600080fd5b505af11580156200021e573d6000803e3d6000fd5b505050506040513d601f19601f82011682018060405250620002449190810190620006a0565b50600354604051634dd5bfa560e11b81526001600160a01b0390911690639bab7f4a906200027790849060040162000a9e565b602060405180830381600087803b1580156200029257600080fd5b505af1158015620002a7573d6000803e3d6000fd5b505050506040513d601f19601f82011682018060405250620002cd9190810190620006a0565b507f15da3952715f46312a55e03dc9ea5ce0ca9e2b8297f7c8f329d378b195ab173333828a8a8a8a60405162000309969594939291906200090a565b60405180910390a1505050949350505050565b6002546001600160a01b031681565b6060620003426200033b62000348565b83620003ae565b92915050565b60408051808201909152601581527468747470733a2f2f697066732e696f2f697066732f60581b602082015290565b600081815481106200038557fe5b6000918252602090912001546001600160a01b0316905081565b6003546001600160a01b031681565b6060620003ec8383604051806020016040528060008152506040518060200160405280600081525060405180602001604052806000815250620003f3565b9392505050565b6060808690506060869050606086905060608690506060869050606081518351855187518951010101016040519080825280601f01601f19166020018201604052801562000448576020820181803883390190505b509050806000805b8851811015620004a5578881815181106200046757fe5b602001015160f81c60f81b8383806001019450815181106200048557fe5b60200101906001600160f81b031916908160001a90535060010162000450565b5060005b8751811015620004fe57878181518110620004c057fe5b602001015160f81c60f81b838380600101945081518110620004de57fe5b60200101906001600160f81b031916908160001a905350600101620004a9565b5060005b865181101562000557578681815181106200051957fe5b602001015160f81c60f81b8383806001019450815181106200053757fe5b60200101906001600160f81b031916908160001a90535060010162000502565b5060005b8551811015620005b0578581815181106200057257fe5b602001015160f81c60f81b8383806001019450815181106200059057fe5b60200101906001600160f81b031916908160001a9053506001016200055b565b5060005b84518110156200060957848181518110620005cb57fe5b602001015160f81c60f81b838380600101945081518110620005e957fe5b60200101906001600160f81b031916908160001a905350600101620005b4565b50909d9c50505050505050505050505050565b611a2b8062000c1283390190565b8051620003428162000bec565b600082601f8301126200064957600080fd5b8135620006606200065a8262000afc565b62000ad4565b915080825260208301602083018583830111156200067d57600080fd5b6200068a83828462000b7e565b50505092915050565b8035620003428162000c06565b600060208284031215620006b357600080fd5b6000620006c184846200062a565b949350505050565b600060208284031215620006dc57600080fd5b813567ffffffffffffffff811115620006f457600080fd5b620006c18482850162000637565b600080600080608085870312156200071957600080fd5b843567ffffffffffffffff8111156200073157600080fd5b6200073f8782880162000637565b945050602085013567ffffffffffffffff8111156200075d57600080fd5b6200076b8782880162000637565b93505060406200077e8782880162000693565b925050606085013567ffffffffffffffff8111156200079c57600080fd5b620007aa8782880162000637565b91505092959194509250565b600060208284031215620007c957600080fd5b6000620006c1848462000693565b6000620007e58383620007fe565b505060200190565b620007f88162000b69565b82525050565b620007f88162000b54565b6000620008168262000b31565b62000822818562000b3f565b93506200082f8362000b25565b8060005b838110156200086c57620008478262000bd4565b620008538882620007d7565b9750620008608362000b39565b92505060010162000833565b509495945050505050565b620007f88162000b61565b620007f88162000b71565b60006200089a8262000b35565b620008a6818562000b3f565b9350620008b881856020860162000b8a565b620008c38162000be2565b9093019392505050565b6000620008dc60048362000b3f565b6327b832b760e11b815260200192915050565b620007f88162000b66565b60208101620003428284620007fe565b60c081016200091a8289620007ed565b62000929602083018862000882565b81810360408301526200093d81876200088d565b905081810360608301526200095381866200088d565b9050620009646080830185620008ef565b81810360a08301526200097881846200088d565b98975050505050505050565b60a08101620009948288620007fe565b8181036020830152620009a881876200088d565b90508181036040830152620009be81866200088d565b90508181036060830152620009d481856200088d565b9050620009e56080830184620008ef565b9695505050505050565b60e0808252810162000a02818a62000809565b905062000a13602083018962000882565b818103604083015262000a2781886200088d565b9050818103606083015262000a3d81876200088d565b905062000a4e6080830186620007ed565b62000a5d60a0830185620008ef565b81810360c083015262000a7181846200088d565b9998505050505050505050565b6020810162000342828462000877565b6020810162000342828462000882565b6040810162000aae828462000882565b8181036020830152620003ec81620008cd565b60208082528101620003ec81846200088d565b60405181810167ffffffffffffffff8111828210171562000af457600080fd5b604052919050565b600067ffffffffffffffff82111562000b1457600080fd5b506020601f91909101601f19160190565b60009081526020902090565b5490565b5190565b60010190565b90815260200190565b6001600160a01b031690565b6000620003428262000b48565b151590565b90565b600062000342825b6000620003428262000b54565b82818337506000910152565b60005b8381101562000ba757818101518382015260200162000b8d565b8381111562000bb7576000848401525b50505050565b60006200034262000bce8362000b66565b62000b48565b600062000342825462000bbd565b601f01601f191690565b62000bf78162000b61565b811462000c0357600080fd5b50565b62000bf78162000b6656fe60806040523480156200001157600080fd5b5060405162001a2b38038062001a2b8339810160408190526200003491620004e3565b83838181620000536301ffc9a760e01b6001600160e01b036200010816565b6200006e6380ac58cd60e01b6001600160e01b036200010816565b6200008963780e9d6360e01b6001600160e01b036200010816565b81516200009e906009906020850190620003cb565b508051620000b490600a906020840190620003cb565b50620000d0635b5e139f60e01b6001600160e01b036200010816565b5050600c80546001600160a01b0319163317905550620000fc905085836001600160e01b036200014516565b50505050505062000664565b6001600160e01b031980821614156200012057600080fd5b6001600160e01b0319166000908152602081905260409020805460ff19166001179055565b6000806200015b6001600160e01b036200019716565b600d8054600101905590506200017b84826001600160e01b03620001bc16565b6200019081846001600160e01b036200020016565b5092915050565b6000620001b66001600d546200024460201b62000cc81790919060201c565b90505b90565b620001d382826200026060201b62000ce11760201c565b620001e882826001600160e01b036200032c16565b620001fc816001600160e01b036200036a16565b5050565b62000214826001600160e01b03620003ae16565b6200021e57600080fd5b6000828152600b6020908152604090912082516200023f92840190620003cb565b505050565b6000828201838110156200025757600080fd5b90505b92915050565b6001600160a01b0382166200027457600080fd5b62000288816001600160e01b03620003ae16565b156200029357600080fd5b600081815260016020818152604080842080546001600160a01b0319166001600160a01b03881690811790915584526003825290922054620002e19290919062000244811b62000cc817901c565b6001600160a01b0383166000818152600360205260408082209390935591518392907fddf252ad1be2c89b69c2b068fc378daa952ba7f163c4a11628f55a4df523b3ef908290a45050565b6001600160a01b0390911660009081526005602081815260408084208054868652600684529185208290559282526001810183559183529091200155565b600780546000838152600860205260408120829055600182018355919091527fa66cc928b5edb82af9bd49922954155ab7b0942694bea4ce44661d9a8736c6880155565b6000908152600160205260409020546001600160a01b0316151590565b828054600181600116156101000203166002900490600052602060002090601f016020900481019282601f106200040e57805160ff19168380011785556200043e565b828001600101855582156200043e579182015b828111156200043e57825182559160200191906001019062000421565b506200044c92915062000450565b5090565b620001b991905b808211156200044c576000815560010162000457565b80516200025a816200063f565b600082601f8301126200048c57600080fd5b8151620004a36200049d82620005d2565b620005ab565b91508082526020830160208301858383011115620004c057600080fd5b620004cd8382846200060c565b50505092915050565b80516200025a8162000659565b600080600080600060a08688031215620004fc57600080fd5b60006200050a88886200046d565b95505060208601516001600160401b038111156200052757600080fd5b62000535888289016200047a565b94505060408601516001600160401b038111156200055257600080fd5b62000560888289016200047a565b93505060608601516001600160401b038111156200057d57600080fd5b6200058b888289016200047a565b92505060806200059e88828901620004d6565b9150509295509295909350565b6040518181016001600160401b0381118282101715620005ca57600080fd5b604052919050565b60006001600160401b03821115620005e957600080fd5b506020601f91909101601f19160190565b60006001600160a01b0382166200025a565b60005b83811015620006295781810151838201526020016200060f565b8381111562000639576000848401525b50505050565b6200064a81620005fa565b81146200065657600080fd5b50565b6200064a81620001b9565b6113b780620006746000396000f3fe60806040526004361061011f5760003560e01c806370a08231116100a0578063b88d4fde11610064578063b88d4fde14610307578063c87b56dd14610327578063d0def52114610347578063e985e9c514610367578063f88d331a146103875761011f565b806370a08231146102885780638f32d59b146102a857806395d89b41146102bd578063a22cb465146102d2578063b4a5b646146102f25761011f565b806323b872dd116100e757806323b872dd146101e85780632f745c591461020857806342842e0e146102285780634f6ccce7146102485780636352211e146102685761011f565b806301ffc9a71461012157806306fdde0314610157578063081812fc14610179578063095ea7b3146101a657806318160ddd146101c6575b005b34801561012d57600080fd5b5061014161013c366004611132565b61039a565b60405161014e9190611240565b60405180910390f35b34801561016357600080fd5b5061016c6103b9565b60405161014e919061124e565b34801561018557600080fd5b5061019961019436600461116e565b610450565b60405161014e91906111ee565b3480156101b257600080fd5b5061011f6101c1366004611102565b610480565b3480156101d257600080fd5b506101db61052d565b60405161014e919061125f565b3480156101f457600080fd5b5061011f610203366004610fc4565b610533565b34801561021457600080fd5b506101db610223366004611102565b610556565b34801561023457600080fd5b5061011f610243366004610fc4565b6105a4565b34801561025457600080fd5b506101db61026336600461116e565b6105bf565b34801561027457600080fd5b5061019961028336600461116e565b6105f3565b34801561029457600080fd5b506101db6102a3366004610f6c565b610615565b3480156102b457600080fd5b50610141610646565b3480156102c957600080fd5b5061016c610657565b3480156102de57600080fd5b5061011f6102ed36600461108a565b6106b8565b3480156102fe57600080fd5b506101db61073d565b34801561031357600080fd5b5061011f610322366004611011565b610743565b34801561033357600080fd5b5061016c61034236600461116e565b610769565b34801561035357600080fd5b506101416103623660046110ba565b61081c565b34801561037357600080fd5b50610141610382366004610f8a565b61084d565b61011f61039536600461116e565b61087b565b6001600160e01b03191660009081526020819052604090205460ff1690565b60098054604080516020601f60026000196101006001881615020190951694909404938401819004810282018101909252828152606093909290918301828280156104455780601f1061041a57610100808354040283529160200191610445565b820191906000526020600020905b81548152906001019060200180831161042857829003601f168201915b505050505090505b90565b600061045b826108b4565b61046457600080fd5b506000908152600260205260409020546001600160a01b031690565b600061048b826105f3565b9050806001600160a01b0316836001600160a01b031614156104ac57600080fd5b336001600160a01b03821614806104c857506104c8813361084d565b6104d157600080fd5b60008281526002602052604080822080546001600160a01b0319166001600160a01b0387811691821790925591518593918516917f8c5be1e5ebec7d5bd14f71427d1e84f3dd0314c0f7b2291e5b200ac8c7c3b92591a4505050565b60075490565b61053d33826108d1565b61054657600080fd5b610551838383610930565b505050565b600061056183610615565b821061056c57600080fd5b6001600160a01b038316600090815260056020526040902080548390811061059057fe5b906000526020600020015490505b92915050565b61055183838360405180602001604052806000815250610743565b60006105c961052d565b82106105d457600080fd5b600782815481106105e157fe5b90600052602060002001549050919050565b6000818152600160205260408120546001600160a01b03168061059e57600080fd5b60006001600160a01b03821661062a57600080fd5b506001600160a01b031660009081526003602052604090205490565b600c546001600160a01b0316331490565b600a8054604080516020601f60026000196101006001881615020190951694909404938401819004810282018101909252828152606093909290918301828280156104455780601f1061041a57610100808354040283529160200191610445565b6001600160a01b0382163314156106ce57600080fd5b3360008181526004602090815260408083206001600160a01b038716808552925291829020805460ff191685151517905590519091907f17307eab39ab6107e8899845ad3d59bd9653f200f220920489ca2b5937696c3190610731908590611240565b60405180910390a35050565b600d5481565b61074e848484610533565b61075a8484848461094f565b61076357600080fd5b50505050565b6060610774826108b4565b61077d57600080fd5b6000828152600b602090815260409182902080548351601f6002600019610100600186161502019093169290920491820184900484028101840190945280845290918301828280156108105780601f106107e557610100808354040283529160200191610810565b820191906000526020600020905b8154815290600101906020018083116107f357829003601f168201915b50505050509050919050565b600080610827610a14565b600d80546001019055905061083c8482610a30565b6108468184610a51565b5092915050565b6001600160a01b03918216600090815260046020908152604080832093909416825291909152205460ff1690565b60405173f39fd6e51aad88f6f4ce6ab8827279cfffb92266908190819084156108fc029085906000818181858888f15050505050505050565b6000908152600160205260409020546001600160a01b0316151590565b6000806108dd836105f3565b9050806001600160a01b0316846001600160a01b031614806109185750836001600160a01b031661090d84610450565b6001600160a01b0316145b806109285750610928818561084d565b949350505050565b61093b838383610a82565b6109458382610b8f565b6105518282610c84565b6000610963846001600160a01b0316610cc2565b61096f57506001610928565b604051630a85bd0160e11b81526000906001600160a01b0386169063150b7a02906109a49033908a90899089906004016111fc565b602060405180830381600087803b1580156109be57600080fd5b505af11580156109d2573d6000803e3d6000fd5b505050506040513d601f19601f820116820180604052506109f69190810190611150565b6001600160e01b031916630a85bd0160e11b14915050949350505050565b600d54600090610a2b90600163ffffffff610cc816565b905090565b610a3a8282610ce1565b610a448282610c84565b610a4d81610d93565b5050565b610a5a826108b4565b610a6357600080fd5b6000828152600b60209081526040909120825161055192840190610e29565b826001600160a01b0316610a95826105f3565b6001600160a01b031614610aa857600080fd5b6001600160a01b038216610abb57600080fd5b610ac481610dd7565b6001600160a01b038316600090815260036020526040902054610aee90600163ffffffff610e1416565b6001600160a01b038085166000908152600360205260408082209390935590841681522054610b2490600163ffffffff610cc816565b6001600160a01b038084166000818152600360209081526040808320959095558582526001905283812080546001600160a01b031916831790559251849391928716917fddf252ad1be2c89b69c2b068fc378daa952ba7f163c4a11628f55a4df523b3ef91a4505050565b6001600160a01b038216600090815260056020526040812054610bb990600163ffffffff610e1416565b600083815260066020526040902054909150808214610c54576001600160a01b0384166000908152600560205260408120805484908110610bf657fe5b906000526020600020015490508060056000876001600160a01b03166001600160a01b031681526020019081526020016000208381548110610c3457fe5b600091825260208083209091019290925591825260069052604090208190555b6001600160a01b0384166000908152600560205260409020805490610c7d906000198301610ea7565b5050505050565b6001600160a01b0390911660009081526005602081815260408084208054868652600684529185208290559282526001810183559183529091200155565b3b151590565b600082820183811015610cda57600080fd5b9392505050565b6001600160a01b038216610cf457600080fd5b610cfd816108b4565b15610d0757600080fd5b600081815260016020818152604080842080546001600160a01b0319166001600160a01b0388169081179091558452600390915290912054610d4891610cc8565b6001600160a01b0383166000818152600360205260408082209390935591518392907fddf252ad1be2c89b69c2b068fc378daa952ba7f163c4a11628f55a4df523b3ef908290a45050565b600780546000838152600860205260408120829055600182018355919091527fa66cc928b5edb82af9bd49922954155ab7b0942694bea4ce44661d9a8736c6880155565b6000818152600260205260409020546001600160a01b031615610e1157600081815260026020526040902080546001600160a01b03191690555b50565b600082821115610e2357600080fd5b50900390565b828054600181600116156101000203166002900490600052602060002090601f016020900481019282601f10610e6a57805160ff1916838001178555610e97565b82800160010185558215610e97579182015b82811115610e97578251825591602001919060010190610e7c565b50610ea3929150610ec7565b5090565b815481835581811115610551576000838152602090206105519181019083015b61044d91905b80821115610ea35760008155600101610ecd565b803561059e81611345565b803561059e81611359565b803561059e81611362565b805161059e81611362565b600082601f830112610f1e57600080fd5b8135610f31610f2c82611294565b61126d565b91508082526020830160208301858383011115610f4d57600080fd5b610f58838284611303565b50505092915050565b803561059e8161136b565b600060208284031215610f7e57600080fd5b60006109288484610ee1565b60008060408385031215610f9d57600080fd5b6000610fa98585610ee1565b9250506020610fba85828601610ee1565b9150509250929050565b600080600060608486031215610fd957600080fd5b6000610fe58686610ee1565b9350506020610ff686828701610ee1565b925050604061100786828701610f61565b9150509250925092565b6000806000806080858703121561102757600080fd5b60006110338787610ee1565b945050602061104487828801610ee1565b935050604061105587828801610f61565b925050606085013567ffffffffffffffff81111561107257600080fd5b61107e87828801610f0d565b91505092959194509250565b6000806040838503121561109d57600080fd5b60006110a98585610ee1565b9250506020610fba85828601610eec565b600080604083850312156110cd57600080fd5b60006110d98585610ee1565b925050602083013567ffffffffffffffff8111156110f657600080fd5b610fba85828601610f0d565b6000806040838503121561111557600080fd5b60006111218585610ee1565b9250506020610fba85828601610f61565b60006020828403121561114457600080fd5b60006109288484610ef7565b60006020828403121561116257600080fd5b60006109288484610f02565b60006020828403121561118057600080fd5b60006109288484610f61565b611195816112f2565b82525050565b611195816112c9565b611195816112d4565b60006111b8826112bc565b6111c281856112c0565b93506111d281856020860161130f565b6111db8161133b565b9093019392505050565b6111958161044d565b6020810161059e828461119b565b6080810161120a828761118c565b611217602083018661119b565b61122460408301856111e5565b818103606083015261123681846111ad565b9695505050505050565b6020810161059e82846111a4565b60208082528101610cda81846111ad565b6020810161059e82846111e5565b60405181810167ffffffffffffffff8111828210171561128c57600080fd5b604052919050565b600067ffffffffffffffff8211156112ab57600080fd5b506020601f91909101601f19160190565b5190565b90815260200190565b600061059e826112e6565b151590565b6001600160e01b03191690565b6001600160a01b031690565b600061059e82600061059e826112c9565b82818337506000910152565b60005b8381101561132a578181015183820152602001611312565b838111156107635750506000910152565b601f01601f191690565b61134e816112c9565b8114610e1157600080fd5b61134e816112d4565b61134e816112d9565b61134e8161044d56fea365627a7a723158206b94b59dd70f69406ab871ad5f1392126b5c08ea4e543120a7a915a3ce97c4866c6578706572696d656e74616cf564736f6c63430005100040a365627a7a723158204db1fb5a839647a7c2abfe8481e16a9430b3d5665487316be28e2e633fd9f96b6c6578706572696d656e74616cf564736f6c63430005100040",
  "source": "pragma solidity ^0.5.16;\npragma experimental ABIEncoderV2;\n\nimport { SafeMath } from \"./openzeppelin-solidity/contracts/math/SafeMath.sol\";\nimport { Strings } from \"./libraries/Strings.sol\";\nimport { PhotoNFTFactoryStorages } from \"./photo-nft-factory/commons/PhotoNFTFactoryStorages.sol\";\nimport { PhotoNFT } from \"./PhotoNFT.sol\";\nimport { PhotoNFTMarketplace } from \"./PhotoNFTMarketplace.sol\";\nimport { PhotoNFTData } from \"./PhotoNFTData.sol\";\n\n\n/**\n * @notice - This is the factory contract for a NFT of photo\n */\ncontract PhotoNFTFactory is PhotoNFTFactoryStorages {\n    using SafeMath for uint256;\n    using Strings for string;    \n\n    address[] public photoAddresses;\n    address PHOTO_NFT_MARKETPLACE;\n\n    PhotoNFTMarketplace public photoNFTMarketplace;\n    PhotoNFTData public photoNFTData;\n\n    constructor(PhotoNFTMarketplace _photoNFTMarketplace, PhotoNFTData _photoNFTData) public {\n        photoNFTMarketplace = _photoNFTMarketplace;\n        photoNFTData = _photoNFTData;\n        PHOTO_NFT_MARKETPLACE = address(photoNFTMarketplace);\n    }\n\n    /**\n     * @notice - Create a new photoNFT when a seller (owner) upload a photo onto IPFS\n     */\n    function createNewPhotoNFT(string memory nftName, string memory nftSymbol, uint photoPrice, string memory ipfsHashOfPhoto) public returns (bool) {\n        address owner = msg.sender;  /// [Note]: Initial owner of photoNFT is msg.sender\n        string memory tokenURI = getTokenURI(ipfsHashOfPhoto);  /// [Note]: IPFS hash + URL\n        PhotoNFT photoNFT = new PhotoNFT(owner, nftName, nftSymbol, tokenURI, photoPrice);\n        photoAddresses.push(address(photoNFT));\n\n        /// Save metadata of a photoNFT created\n        photoNFTData.saveMetadataOfPhotoNFT(photoAddresses, photoNFT, nftName, nftSymbol, msg.sender, photoPrice, ipfsHashOfPhoto);\n        photoNFTData.updateStatus(photoNFT, \"Open\");\n\n        emit PhotoNFTCreated(msg.sender, photoNFT, nftName, nftSymbol, photoPrice, ipfsHashOfPhoto);\n    }\n\n\n    ///-----------------\n    /// Getter methods\n    ///-----------------\n    function baseTokenURI() public pure returns (string memory) {\n        return \"https://ipfs.io/ipfs/\";\n    }\n\n    function getTokenURI(string memory _ipfsHashOfPhoto) public view returns (string memory) {\n        return Strings.strConcat(baseTokenURI(), _ipfsHashOfPhoto);\n    }\n\n}\n",
  "sourcePath": "/Users/renancorrea/Desktop/SheepNFT/contracts/PhotoNFTFactory.sol",
  "compiler": {
    "name": "solc",
    "version": "0.5.16+commit.9c3226ce.Emscripten.clang"
  },
  "schemaVersion": "3.4.3",
  "updatedAt": "2021-10-04T04:21:11.068Z",
  "networkType": "ethereum",
  "devdoc": {
    "methods": {}
  },
  "userdoc": {
    "methods": {
      "baseTokenURI()": {
        "notice": "----------------- Getter methods -----------------"
      },
      "createNewPhotoNFT(string,string,uint256,string)": {
        "notice": "- Create a new photoNFT when a seller (owner) upload a photo onto IPFS"
      }
    },
    "notice": "- This is the factory contract for a NFT of photo"
  }
}